{
  "_format": "hh-sol-artifact-1",
  "contractName": "AuthManager",
  "sourceName": "contracts/AuthManager.sol",
  "abi": [
    {
      "inputs": [],
      "stateMutability": "nonpayable",
      "type": "constructor"
    },
    {
      "anonymous": false,
      "inputs": [
        {
          "indexed": true,
          "internalType": "address",
          "name": "wallet",
          "type": "address"
        },
        {
          "indexed": false,
          "internalType": "uint256",
          "name": "time",
          "type": "uint256"
        },
        {
          "indexed": false,
          "internalType": "string",
          "name": "resource",
          "type": "string"
        }
      ],
      "name": "AccessRequested",
      "type": "event"
    },
    {
      "anonymous": false,
      "inputs": [
        {
          "indexed": true,
          "internalType": "address",
          "name": "wallet",
          "type": "address"
        },
        {
          "indexed": false,
          "internalType": "string",
          "name": "reason",
          "type": "string"
        }
      ],
      "name": "UserBanned",
      "type": "event"
    },
    {
      "anonymous": false,
      "inputs": [
        {
          "indexed": true,
          "internalType": "address",
          "name": "wallet",
          "type": "address"
        },
        {
          "indexed": false,
          "internalType": "uint256",
          "name": "time",
          "type": "uint256"
        }
      ],
      "name": "UserRegistered",
      "type": "event"
    },
    {
      "inputs": [
        {
          "internalType": "address",
          "name": "_user",
          "type": "address"
        },
        {
          "internalType": "string",
          "name": "reason",
          "type": "string"
        }
      ],
      "name": "banUser",
      "outputs": [],
      "stateMutability": "nonpayable",
      "type": "function"
    },
    {
      "inputs": [
        {
          "internalType": "address",
          "name": "_user",
          "type": "address"
        }
      ],
      "name": "isUserRegistered",
      "outputs": [
        {
          "internalType": "bool",
          "name": "",
          "type": "bool"
        }
      ],
      "stateMutability": "view",
      "type": "function"
    },
    {
      "inputs": [],
      "name": "owner",
      "outputs": [
        {
          "internalType": "address",
          "name": "",
          "type": "address"
        }
      ],
      "stateMutability": "view",
      "type": "function"
    },
    {
      "inputs": [],
      "name": "registerUser",
      "outputs": [],
      "stateMutability": "nonpayable",
      "type": "function"
    },
    {
      "inputs": [
        {
          "internalType": "string",
          "name": "resource",
          "type": "string"
        }
      ],
      "name": "requestAccess",
      "outputs": [],
      "stateMutability": "nonpayable",
      "type": "function"
    },
    {
      "inputs": [
        {
          "internalType": "address",
          "name": "",
          "type": "address"
        }
      ],
      "name": "users",
      "outputs": [
        {
          "internalType": "bool",
          "name": "isRegistered",
          "type": "bool"
        },
        {
          "internalType": "string",
          "name": "walletAddress",
          "type": "string"
        },
        {
          "internalType": "uint256",
          "name": "registrationTime",
          "type": "uint256"
        },
        {
          "internalType": "uint256",
          "name": "requestCount",
          "type": "uint256"
        },
        {
          "internalType": "bool",
          "name": "isBanned",
          "type": "bool"
        }
      ],
      "stateMutability": "view",
      "type": "function"
    }
  ],
  "bytecode": "0x6080604052348015600f57600080fd5b5033600160006101000a81548173ffffffffffffffffffffffffffffffffffffffff021916908373ffffffffffffffffffffffffffffffffffffffff16021790555061175c806100606000396000f3fe608060405234801561001057600080fd5b50600436106100625760003560e01c806310ee1b2214610067578063163f7522146100835780634d3820eb146100b35780638da5cb5b146100bd578063a87430ba146100db578063de8be6fd1461010f575b600080fd5b610081600480360381019061007c9190610aa2565b61012b565b005b61009d60048036038101906100989190610b4d565b6102f5565b6040516100aa9190610b95565b60405180910390f35b6100bb6103a5565b005b6100c5610565565b6040516100d29190610bbf565b60405180910390f35b6100f560048036038101906100f09190610b4d565b61058b565b604051610106959493929190610c83565b60405180910390f35b61012960048036038101906101249190610cdd565b610663565b005b6000803373ffffffffffffffffffffffffffffffffffffffff1673ffffffffffffffffffffffffffffffffffffffff16815260200190815260200160002060000160009054906101000a900460ff166101b9576040517f08c379a00000000000000000000000000000000000000000000000000000000081526004016101b090610d89565b60405180910390fd5b6000803373ffffffffffffffffffffffffffffffffffffffff1673ffffffffffffffffffffffffffffffffffffffff16815260200190815260200160002060040160009054906101000a900460ff1615610248576040517f08c379a000000000000000000000000000000000000000000000000000000000815260040161023f90610df5565b60405180910390fd5b6000803373ffffffffffffffffffffffffffffffffffffffff1673ffffffffffffffffffffffffffffffffffffffff168152602001908152602001600020600301600081548092919061029a90610e44565b91905055503373ffffffffffffffffffffffffffffffffffffffff167ff93742f45cff99508fa4bc1065b15836431cd2abd9d8b374abf3bdce7ae4d0844284846040516102e993929190610ec8565b60405180910390a25050565b60008060008373ffffffffffffffffffffffffffffffffffffffff1673ffffffffffffffffffffffffffffffffffffffff16815260200190815260200160002060000160009054906101000a900460ff16801561039e57506000808373ffffffffffffffffffffffffffffffffffffffff1673ffffffffffffffffffffffffffffffffffffffff16815260200190815260200160002060040160009054906101000a900460ff16155b9050919050565b6000803373ffffffffffffffffffffffffffffffffffffffff1673ffffffffffffffffffffffffffffffffffffffff16815260200190815260200160002060000160009054906101000a900460ff1615610434576040517f08c379a000000000000000000000000000000000000000000000000000000000815260040161042b90610f46565b60405180910390fd5b6040518060a0016040528060011515815260200161045133610830565b815260200142815260200160008152602001600015158152506000803373ffffffffffffffffffffffffffffffffffffffff1673ffffffffffffffffffffffffffffffffffffffff16815260200190815260200160002060008201518160000160006101000a81548160ff02191690831515021790555060208201518160010190816104dd91906111a1565b50604082015181600201556060820151816003015560808201518160040160006101000a81548160ff0219169083151502179055509050503373ffffffffffffffffffffffffffffffffffffffff167fe29d35093005f4d575e1003753426b57a7f64378ba73332eef9c6ccc2b8decd64260405161055b9190611273565b60405180910390a2565b600160009054906101000a900473ffffffffffffffffffffffffffffffffffffffff1681565b60006020528060005260406000206000915090508060000160009054906101000a900460ff16908060010180546105c190610fc4565b80601f01602080910402602001604051908101604052809291908181526020018280546105ed90610fc4565b801561063a5780601f1061060f5761010080835404028352916020019161063a565b820191906000526020600020905b81548152906001019060200180831161061d57829003601f168201915b5050505050908060020154908060030154908060040160009054906101000a900460ff16905085565b600160009054906101000a900473ffffffffffffffffffffffffffffffffffffffff1673ffffffffffffffffffffffffffffffffffffffff163373ffffffffffffffffffffffffffffffffffffffff16146106f3576040517f08c379a00000000000000000000000000000000000000000000000000000000081526004016106ea906112da565b60405180910390fd5b6000808473ffffffffffffffffffffffffffffffffffffffff1673ffffffffffffffffffffffffffffffffffffffff16815260200190815260200160002060000160009054906101000a900460ff16610781576040517f08c379a000000000000000000000000000000000000000000000000000000000815260040161077890611346565b60405180910390fd5b60016000808573ffffffffffffffffffffffffffffffffffffffff1673ffffffffffffffffffffffffffffffffffffffff16815260200190815260200160002060040160006101000a81548160ff0219169083151502179055508273ffffffffffffffffffffffffffffffffffffffff167f028953300de3926dd6fe1fe47b1cfb58fdd22041441f37f969b8f7cbf751e4868383604051610823929190611366565b60405180910390a2505050565b60606000602867ffffffffffffffff81111561084f5761084e610f66565b5b6040519080825280601f01601f1916602001820160405280156108815781602001600182028036833780820191505090505b50905060005b60148110156109e357600081601361089f919061138a565b60086108ab91906113be565b60026108b79190611533565b8573ffffffffffffffffffffffffffffffffffffffff166108d891906115ad565b60f81b9050600060108260f81c6108ef91906115eb565b60f81b905060008160f81c6010610906919061161c565b8360f81c6109149190611659565b60f81b9050610922826109ed565b8585600261093091906113be565b815181106109415761094061168e565b5b60200101907effffffffffffffffffffffffffffffffffffffffffffffffffffffffffffff1916908160001a905350610979816109ed565b85600186600261098991906113be565b61099391906116bd565b815181106109a4576109a361168e565b5b60200101907effffffffffffffffffffffffffffffffffffffffffffffffffffffffffffff1916908160001a9053505050508080600101915050610887565b5080915050919050565b6000600a8260f81c60ff161015610a185760308260f81c610a0e91906116f1565b60f81b9050610a2e565b60578260f81c610a2891906116f1565b60f81b90505b919050565b600080fd5b600080fd5b600080fd5b600080fd5b600080fd5b60008083601f840112610a6257610a61610a3d565b5b8235905067ffffffffffffffff811115610a7f57610a7e610a42565b5b602083019150836001820283011115610a9b57610a9a610a47565b5b9250929050565b60008060208385031215610ab957610ab8610a33565b5b600083013567ffffffffffffffff811115610ad757610ad6610a38565b5b610ae385828601610a4c565b92509250509250929050565b600073ffffffffffffffffffffffffffffffffffffffff82169050919050565b6000610b1a82610aef565b9050919050565b610b2a81610b0f565b8114610b3557600080fd5b50565b600081359050610b4781610b21565b92915050565b600060208284031215610b6357610b62610a33565b5b6000610b7184828501610b38565b91505092915050565b60008115159050919050565b610b8f81610b7a565b82525050565b6000602082019050610baa6000830184610b86565b92915050565b610bb981610b0f565b82525050565b6000602082019050610bd46000830184610bb0565b92915050565b600081519050919050565b600082825260208201905092915050565b60005b83811015610c14578082015181840152602081019050610bf9565b60008484015250505050565b6000601f19601f8301169050919050565b6000610c3c82610bda565b610c468185610be5565b9350610c56818560208601610bf6565b610c5f81610c20565b840191505092915050565b6000819050919050565b610c7d81610c6a565b82525050565b600060a082019050610c986000830188610b86565b8181036020830152610caa8187610c31565b9050610cb96040830186610c74565b610cc66060830185610c74565b610cd36080830184610b86565b9695505050505050565b600080600060408486031215610cf657610cf5610a33565b5b6000610d0486828701610b38565b935050602084013567ffffffffffffffff811115610d2557610d24610a38565b5b610d3186828701610a4c565b92509250509250925092565b7f55736572206e6f74207265676973746572656400000000000000000000000000600082015250565b6000610d73601383610be5565b9150610d7e82610d3d565b602082019050919050565b60006020820190508181036000830152610da281610d66565b9050919050565b7f557365722069732062616e6e6564000000000000000000000000000000000000600082015250565b6000610ddf600e83610be5565b9150610dea82610da9565b602082019050919050565b60006020820190508181036000830152610e0e81610dd2565b9050919050565b7f4e487b7100000000000000000000000000000000000000000000000000000000600052601160045260246000fd5b6000610e4f82610c6a565b91507fffffffffffffffffffffffffffffffffffffffffffffffffffffffffffffffff8203610e8157610e80610e15565b5b600182019050919050565b82818337600083830152505050565b6000610ea78385610be5565b9350610eb4838584610e8c565b610ebd83610c20565b840190509392505050565b6000604082019050610edd6000830186610c74565b8181036020830152610ef0818486610e9b565b9050949350505050565b7f416c726561647920726567697374657265640000000000000000000000000000600082015250565b6000610f30601283610be5565b9150610f3b82610efa565b602082019050919050565b60006020820190508181036000830152610f5f81610f23565b9050919050565b7f4e487b7100000000000000000000000000000000000000000000000000000000600052604160045260246000fd5b7f4e487b7100000000000000000000000000000000000000000000000000000000600052602260045260246000fd5b60006002820490506001821680610fdc57607f821691505b602082108103610fef57610fee610f95565b5b50919050565b60008190508160005260206000209050919050565b60006020601f8301049050919050565b600082821b905092915050565b6000600883026110577fffffffffffffffffffffffffffffffffffffffffffffffffffffffffffffffff8261101a565b611061868361101a565b95508019841693508086168417925050509392505050565b6000819050919050565b600061109e61109961109484610c6a565b611079565b610c6a565b9050919050565b6000819050919050565b6110b883611083565b6110cc6110c4826110a5565b848454611027565b825550505050565b600090565b6110e16110d4565b6110ec8184846110af565b505050565b5b81811015611110576111056000826110d9565b6001810190506110f2565b5050565b601f8211156111555761112681610ff5565b61112f8461100a565b8101602085101561113e578190505b61115261114a8561100a565b8301826110f1565b50505b505050565b600082821c905092915050565b60006111786000198460080261115a565b1980831691505092915050565b60006111918383611167565b9150826002028217905092915050565b6111aa82610bda565b67ffffffffffffffff8111156111c3576111c2610f66565b5b6111cd8254610fc4565b6111d8828285611114565b600060209050601f83116001811461120b57600084156111f9578287015190505b6112038582611185565b86555061126b565b601f19841661121986610ff5565b60005b828110156112415784890151825560018201915060208501945060208101905061121c565b8683101561125e578489015161125a601f891682611167565b8355505b6001600288020188555050505b505050505050565b60006020820190506112886000830184610c74565b92915050565b7f4e6f74206f776e65720000000000000000000000000000000000000000000000600082015250565b60006112c4600983610be5565b91506112cf8261128e565b602082019050919050565b600060208201905081810360008301526112f3816112b7565b9050919050565b7f55736572206e6f7420666f756e64000000000000000000000000000000000000600082015250565b6000611330600e83610be5565b915061133b826112fa565b602082019050919050565b6000602082019050818103600083015261135f81611323565b9050919050565b60006020820190508181036000830152611381818486610e9b565b90509392505050565b600061139582610c6a565b91506113a083610c6a565b92508282039050818111156113b8576113b7610e15565b5b92915050565b60006113c982610c6a565b91506113d483610c6a565b92508282026113e281610c6a565b915082820484148315176113f9576113f8610e15565b5b5092915050565b60008160011c9050919050565b6000808291508390505b60018511156114575780860481111561143357611432610e15565b5b60018516156114425780820291505b808102905061145085611400565b9450611417565b94509492505050565b600082611470576001905061152c565b8161147e576000905061152c565b8160018114611494576002811461149e576114cd565b600191505061152c565b60ff8411156114b0576114af610e15565b5b8360020a9150848211156114c7576114c6610e15565b5b5061152c565b5060208310610133831016604e8410600b84101617156115025782820a9050838111156114fd576114fc610e15565b5b61152c565b61150f848484600161140d565b9250905081840481111561152657611525610e15565b5b81810290505b9392505050565b600061153e82610c6a565b915061154983610c6a565b92506115767fffffffffffffffffffffffffffffffffffffffffffffffffffffffffffffffff8484611460565b905092915050565b7f4e487b7100000000000000000000000000000000000000000000000000000000600052601260045260246000fd5b60006115b882610c6a565b91506115c383610c6a565b9250826115d3576115d261157e565b5b828204905092915050565b600060ff82169050919050565b60006115f6826115de565b9150611601836115de565b9250826116115761161061157e565b5b828204905092915050565b6000611627826115de565b9150611632836115de565b9250828202611640816115de565b915080821461165257611651610e15565b5b5092915050565b6000611664826115de565b915061166f836115de565b9250828203905060ff81111561168857611687610e15565b5b92915050565b7f4e487b7100000000000000000000000000000000000000000000000000000000600052603260045260246000fd5b60006116c882610c6a565b91506116d383610c6a565b92508282019050808211156116eb576116ea610e15565b5b92915050565b60006116fc826115de565b9150611707836115de565b9250828201905060ff8111156117205761171f610e15565b5b9291505056fea2646970667358221220011ed4ce4ee55fc00b538c6db9b993328cb3b7af9033239e1755d3fcaa4a8d6564736f6c634300081c0033",
  "linkReferences": {},
  "deployedLinkReferences": {}
}